:100000000C9436010C9457010C9457010C94570131
:100010000C9457010C9457010C9457010C94570100
:100020000C9457010C9457010C9457010C945701F0
:100030000C9457010C9457010C9457010C945701E0
:100040000C9457010C9457010C9457010C945701D0
:100050000C9457010C9457010C9457010C946204B2
:100060000C9457010C9457010C9457010C945701B0
:100070000C9457010C9457010C9457010C945701A0
:100080000C9457010C9457010C9457010C94570190
:100090000C9457010C9457010C9457010C94570180
:1000A0000C9457010C9457010C9457010C94570170
:1000B0000C9457010C9457010C9457010C94570160
:1000C0000C9457010C9457010C9457010C94570150
:1000D0000C9457010C9457010C9457010C94570140
:1000E0000C9457018F039203810385038B03C9038B
:1000F00096039A03A003A403A803AE03B203B603B6
:10010000C903BC03C003C4030C9492030C94A4035E
:100110000C94B6030C9496030C9481030C94C003C6
:100120000C94BC030C9485030C948F030C94C403AF
:100130000C94AE030C94B2030C949A030C94A00399
:100140000C94C9030C94A8030C948B0300000A0BB5
:1001500002090C0D0E080703040100000000000056
:10016000000000000000000000000000000000008F
:10017000000000000000000012111000000000004C
:10018000000000000000000000000000000000006F
:10019000000001021020200808102040102040809C
:1001A000020102010804020101020408102040803B
:1001B00080402010080402018004020180402010C9
:1001C0000804020108040201010204081020408012
:1001D00001020408102040800505050507050808F0
:1001E0000808020202020A0A0808040404040101C1
:1001F00001010101010103030303030303030407D6
:1002000007070C0C0C0C0C0C0C0C0202020206066C
:100210000606060606060B0B0B0B0B0B0B0B000062
:1002200020002300260029002C002F0032000001AE
:10023000000003010601090100002200250028003A
:100240002B002E00310034000201000005010801DE
:100250000B0100002100240027002A002D0030009F
:10026000330001010000040107010A0111241FBE2F
:10027000CFEFD1E2DEBFCDBF00E00CBF12E0A0E0C7
:10028000B2E0ECE8F2E100E00BBF02C007900D9293
:10029000AA30B107D9F722E0AAE0B2E001C01D926E
:1002A000AB31B207E1F70E9459010C94A9080C94F4
:1002B0000000EF92FF920F931F93CF93DF93CDB780
:1002C000DEB7C854D1090FB6F894DEBF0FBECDBF5C
:1002D000F89483E084BD85BD91E090936E0021EA9F
:1002E00020938000809381009093B00084E08093FD
:1002F000B10010926F00789406E02CE24DE263E1C9
:1003000070E0CE0181960E94990624E345E363E103
:1003100070E0CE0141960E94990620E341E36EE031
:1003200070E0CE0101960E94990662E082E00E9490
:10033000CA0362E084E00E94CA03CE0141960E9493
:100340006205CE0141960E944E06CE0141960E9462
:10035000AC05BE016F5F7F4FCE01C1960E94A8021F
:10036000BE016F5D7F4FCE01805C9F4F0E94E40213
:1003700020E030E04FEF50E065E070E0CE014196C4
:100380000E94B806CE0141960E94AC058AE0E82E94
:10039000F12C08E210E080910A0290910B02B70163
:1003A0000E94B308892B29F4CE01805C9F4F0E94E4
:1003B000FF02CE01805C9F4F0E944B03019651F4D7
:1003C00060E0CE01C1960E945002CE01805C9F4F3A
:1003D0000E945F03CE01805C9F4F0E944B030197F8
:1003E00051F461E0CE01C1960E945002CE01805CC2
:1003F0009F4F0E945F03CE01C1960E946102CE0111
:10040000C1960E94D00281112FC0CE01C1960E94D8
:10041000DA02811129C082E00E943904892B31F46B
:1004200061E0CE01805C9F4F0E94480384E00E94FF
:100430003904892B31F460E0CE01805C9F4F0E942B
:10044000480369E170E080E090E00E94CF04809171
:100450000A0290910B020196B8010E94B308909392
:100460000B0280930A0297CFCE0101960E94770576
:10047000CE0141960E947705CE0181960E947705B4
:1004800080E090E0C85BDF4F0FB6F894DEBF0FBE90
:10049000CDBFDF91CF911F910F91FF90EF90089505
:1004A000FC01662331F082819381019793838283DB
:1004B00005C08481958101979583848381E086833B
:1004C00008950F931F93CF93DF93EC018E818823C0
:1004D000D1F100E010E02A813B816B857C85888129
:1004E0009981600F711F021713072CF420E030E090
:1004F0004FEF50E003C020E030E0A9010E94B806B1
:100500002C813D81888199816F817885600F711F71
:10051000021713072CF42FEF30E040E050E003C047
:1005200020E030E0A9010E94B8060F5F1F4F07309E
:10053000110589F61E8288819981DF91CF911F91E3
:100540000F910C94AC05DF91CF911F910F910895FD
:10055000CF93DF93EC01CB017983688327E030E010
:100560003B832A833D832C8341E04E8318861F8280
:100570003A8729873C872B872FE030E03E872D87FD
:100580000E946205888199810E944E0664E68881F6
:1005900099810E94D706CE01DF91CF910C94610220
:1005A00041E0FC0122813381121613060CF440E075
:1005B000842F089541E0FC01248135811216130631
:1005C0000CF440E0842F0895CF93DF93EC017983FE
:1005D00068830E949A0881708A8389E090E09887F6
:1005E0008F83888199810E946205888199810E9408
:1005F0004E0688819981DF91CF910C94AC05CF9301
:10060000DF93EC016F8178852A816130710519F4DF
:10061000222331F03AC06131710511F42223A9F18E
:10062000888199812223A9F020E030E0A9010E946D
:10063000B8066F817885615071092FEF30E040E096
:1006400050E0888199810E94B8068F819885019732
:1006500014C020E030E0A9010E94B8066F817885BF
:100660006F5F7F4F20E030E04FEF50E0888199814D
:100670000E94B8068F819885019698878F8388811C
:100680009981DF91CF910C94AC05DF91CF910895C2
:10069000FC0162830895FC0187819085813091057A
:1006A00031F4228121110AC080E090E00895419741
:1006B000D9F782818111F8CF8FEF9FEF0895CF9303
:1006C000DF93EC018A8191E089278A836F817885A5
:1006D00020E030E0A901888199810E94B80689E074
:1006E00090E098878F83DF91CF91089590E0FC018F
:1006F0003197E231F10508F04CC0EE58FF4F0C94F1
:10070000E608809180008F7703C0809180008F7D04
:1007100080938000089580918000877FF9CF84B511
:100720008F7702C084B58F7D84BD08958091B0001D
:100730008F7703C08091B0008F7D8093B0000895C3
:10074000809190008F7707C0809190008F7D03C0CB
:1007500080919000877F8093900008958091A00001
:100760008F7707C08091A0008F7D03C08091A0008B
:10077000877F8093A0000895809120018F7707C024
:10078000809120018F7D03C080912001877F80931D
:1007900020010895CF93DF9390E0FC01EE56FE4FC9
:1007A0002491FC01E852FE4F8491882349F190E0A6
:1007B000880F991FFC01EE5AFD4FA591B491885CFA
:1007C0009D4FFC01C591D4919FB7611108C0F89469
:1007D0008C91209582238C93888182230AC0623079
:1007E00051F4F8948C91322F309583238C93888127
:1007F000822B888304C0F8948C91822B8C939FBFAA
:10080000DF91CF9108950F931F93CF93DF931F92A2
:10081000CDB7DEB7282F30E0F901E45BFE4F8491BD
:10082000F901EE56FE4F1491F901E852FE4F049182
:100830000023C9F0882321F069830E94760369812F
:10084000E02FF0E0EE0FFF1FE85CFD4FA591B491A3
:100850009FB7F8948C91611103C01095812301C05A
:10086000812B8C939FBF0F90DF91CF911F910F91A0
:100870000895CF93DF93282F30E0F901E45BFE4F1A
:100880008491F901EE56FE4FD491F901E852FE4FE2
:10089000C491CC2391F081110E947603EC2FF0E0FB
:1008A000EE0FFF1FE25EFD4FA591B4912C912D2319
:1008B00081E090E021F480E002C080E090E0DF91F0
:1008C000CF9108951F920F920FB60F9211242F937C
:1008D0003F938F939F93AF93BF9380910D0290911D
:1008E0000E02A0910F02B091100230910C0223E091
:1008F000230F2D3720F40196A11DB11D05C026E858
:10090000230F0296A11DB11D20930C0280930D02AE
:1009100090930E02A0930F02B093100280911102E7
:1009200090911202A0911302B09114020196A11DA0
:10093000B11D8093110290931202A0931302B09301
:100940001402BF91AF919F918F913F912F910F9082
:100950000FBE0F901F9018953FB7F8948091110229
:1009600090911202A0911302B091140226B5A89B97
:1009700005C02F3F19F00196A11DB11D3FBF66278D
:10098000782F892F9A2F620F711D811D911D42E0D2
:10099000660F771F881F991F4A95D1F708958F9288
:1009A0009F92AF92BF92CF92DF92EF92FF926B0134
:1009B0007C010E94AC044B015C01C114D104E10430
:1009C000F104F1F00E94DB060E94AC046819790979
:1009D0008A099B09683E73408105910570F321E007
:1009E000C21AD108E108F10888EE880E83E0981E4B
:1009F000A11CB11CC114D104E104F10429F7DDCF1D
:100A0000FF90EF90DF90CF90BF90AF909F908F902E
:100A100008958EBD00000DB407FEFDCF8EB508957C
:100A20000E94DC068CB58C7F8CBD8DB581608DBD40
:100A30008CB58F7D8CBD8CB5837F8CBD0895CF9395
:100A4000DF93EC0161E08A810E94CA0361E08B813F
:100A50000E94CA034A8150E0FA01E852FE4FE49135
:100A6000F0E0EE0FFF1FE85CFD4FA591B491BD874C
:100A7000AC872B8130E0F901E852FE4F849190E081
:100A8000880F991F885C9D4FFC01859194919F87E9
:100A90008E87FA01EE56FE4F44914A87F901EE56D1
:100AA000FE4F24912B878C919A85909589238C9366
:100AB000EE85FF8590818B85809589238083DF91EA
:100AC000CF910895FC0122812F3F11F40C94100561
:100AD0000C941F05CF93DF93EC0160E08A810E94A4
:100AE000CA0360E08B81DF91CF910C94CA03CF934E
:100AF000DF93EC018D819E81009711F00E94BE076B
:100B00008A818F3F21F4DF91CF910C941207CE019F
:100B1000DF91CF910C946A05FC0199E09150D9F0D6
:100B2000A485B58582852C9167FF03C0282B2C9363
:100B300003C0809582238C93A685B7858C912385ED
:100B4000822B8C93A685B7852C91838580958223F3
:100B50008C93660FE3CF0895BF92CF92DF92EF920E
:100B6000FF920F931F93CF93DF93EC01ED80FE80F4
:100B7000E114F10409F488C008811981BC808A81DC
:100B80008F3F09F041C080E00E94090580E00E948B
:100B9000090580E00E9409051EBC3FEF0DB407FE69
:100BA000FDCF3EBDF70123E08C81882331F08081A9
:100BB0008B9DC0011124892F01C080810DB407FED7
:100BC000FDCF8EBD215031962111EECF83E0E80E8E
:100BD000F11C0150110911F70DB407FEFDCF8FEF85
:100BE0000E9409058FEF0E9409058FEF0E940905F9
:100BF0008FEFDF91CF911F910F91FF90EF90DF90DA
:100C0000CF90BF900C94090574E0D72E60E0CE0120
:100C10000E948C05DA94D1F78C81882331F16FEF33
:100C2000CE010E948C056701E3E0CE0ED11CF701D6
:100C300081917F018B9DC0011124692FCE010E94FB
:100C40008C05EC14FD0499F70150110941F714E0EB
:100C500015C0F70161917F01CE010E948C05EC1453
:100C6000FD04B9F70150110991F36FEFCE010E9415
:100C70008C056701F3E0CF0ED11CEBCF6FEFCE01F7
:100C80000E948C051150D1F7DF91CF911F910F91E8
:100C9000FF90EF90DF90CF90BF900895FC013781D7
:100CA000208580819181AC01321307C04D5F5F4F79
:100CB000569547955695479502C0440F551F480FC6
:100CC000591F60E070E0858196810C94AC080F9309
:100CD0001F93CF93DF93EC018B018D819E81009751
:100CE00011F00E94BE079F818885981307C0C80134
:100CF0000396969587959695879503C0C801880FAA
:100D0000991F800F911F0E9426079E838D83892B38
:100D100049F019830883CE01DF91CF911F910F9184
:100D20000C944E0619821882DF91CF911F910F917A
:100D300008950F931F93FC0142832383148216822C
:100D40001582802F8370878310E0C8019595879561
:100D5000959587958370808734E0159507953A952A
:100D6000E1F703700187CF011F910F910C94670683
:100D7000FC018081918168177907C0F4DB01AA0F1B
:100D8000BB1FA60FB71F858196818A0F9B1F5781B6
:100D9000DC01A50FB11D4C934085DC01A40FB11DF2
:100DA0003C933185FC01E30FF11D208308956F5FB3
:100DB000FC01648308950895CF93CFB7F894809190
:100DC0001602811127C0EDE0F2E08491E7ECF1E03A
:100DD0009491E82FF0E0EE0FFF1FEE5AFD4FA59122
:100DE000B4918C91892321F461E085E30E9403048E
:100DF00061E085E30E94CA038CB580618CBD8CB52F
:100E000080648CBD61E084E30E94CA0361E083E3F7
:100E10000E94CA03809116028F5F80931602CFBF93
:100E2000CF9108959FB7F89480911602882319F006
:100E300081508093160280911602811105C08CB5F5
:100E40008F7B8CBD109215029FBF0895CF93DF93C7
:100E50008230910510F482E090E0E0911902F09167
:100E60001A0220E030E0A0E0B0E0309739F1408194
:100E7000518148175907B8F04817590771F4828112
:100E80009381109729F013969C938E9312972CC000
:100E900090931A028093190227C02115310531F071
:100EA0004217530718F0A901DB0101C0EF019A01B5
:100EB000BD01DF010280F381E02DD7CF211531057F
:100EC000F9F0281B390B2430310580F48A819B818D
:100ED0006115710521F0FB019383828304C0909317
:100EE0001A0280931902FE01329644C0FE01E20FFD
:100EF000F31F8193919322503109398328833AC09B
:100F00002091170230911802232B41F42091020204
:100F100030910302309318022093170220910002AF
:100F2000309101022115310541F42DB73EB74091B2
:100F3000040250910502241B350BE0911702F09139
:100F40001802E217F307A0F42E1B3F0B28173907EE
:100F500078F0AC014E5F5F4F2417350748F04E0F15
:100F60005F1F50931802409317028193919302C020
:100F7000E0E0F0E0CF01DF91CF910895CF93DF93D0
:100F8000009709F487C0FC01329713821282C09146
:100F90001902D0911A02209781F420813181280F03
:100FA000391F80911702909118028217930779F5E3
:100FB000F0931802E09317026DC0DE0120E030E0EC
:100FC000AE17BF0750F412964D915C9113979D0197
:100FD0004115510509F1DA01F3CFB383A2834081B2
:100FE0005181840F951F8A179B0771F48D919C91F5
:100FF0001197840F951F02969183808312968D918D
:101000009C911397938382832115310529F4F093E2
:101010001A02E09319023EC0D9011396FC93EE9395
:1010200012974D915D91A40FB51FEA17FB0779F454
:1010300080819181840F951F0296D90111969C930E
:101040008E938281938113969C938E931297E0E006
:10105000F0E08A819B81009719F0FE01EC01F9CF45
:10106000CE01029628813981820F931F20911702A9
:10107000309118022817390769F4309729F4109233
:101080001A021092190202C013821282D09318021F
:10109000C0931702DF91CF9108958F929F92AF92E4
:1010A000BF92CF92DF92EF92FF92CF93DF93EC014A
:1010B000688179818A819B8161157105810591051E
:1010C00021F464E279ED8BE597E02DE133EF41E027
:1010D00050E00E94C70849015A019B01AC01A7EAF0
:1010E000B1E40E94EC086B017C01ACEEB4EFA50109
:1010F00094010E94FA08C60ED71EE81EF91EF7FEDC
:1011000006C081E0C81AD108E10880E8F80AC88260
:10111000D982EA82FB82C6019F77DF91CF91FF904F
:10112000EF90DF90CF90BF90AF909F908F900895F9
:101130000C944D0886E092E00C944D08A0E0B0E0DD
:101140008093060290930702A0930802B0930902CD
:101150000895F8940C944409DC0101C06D9341504A
:101160005040E0F7089597FB072E16F4009407D03F
:1011700077FD09D00E94FF0807FC05D03EF490954A
:1011800081959F4F0895709561957F4F0895052E25
:1011900097FB1EF400940E94DE0857FD07D00E94C2
:1011A000130907FC03D04EF40C94DE0850954095CB
:1011B000309521953F4F4F4F5F4F08959095809503
:1011C000709561957F4F8F4F9F4F0895EE0FFF1FD2
:1011D0000590F491E02D19940E943509A59F900D7A
:1011E000B49F900DA49F800D911D11240895B7FF09
:1011F0000C94EC080E94EC08821B930B0895AA1B28
:10120000BB1B51E107C0AA1FBB1FA617B70710F0F1
:10121000A61BB70B881F991F5A95A9F78095909523
:10122000BC01CD010895A1E21A2EAA1BBB1BFD0132
:101230000DC0AA1FBB1FEE1FFF1FA217B307E407B5
:10124000F50720F0A21BB30BE40BF50B661F771F0D
:10125000881F991F1A9469F76095709580959095ED
:101260009B01AC01BD01CF010895A29FB001B39FC6
:10127000C001A39F700D811D1124911DB29F700D9F
:0C128000811D1124911D0895F894FFCFEA
:0A128C0000001B02800001000000BA
:00000001FF
